:1000000012C021C020C01FC01EC01DC01CC01BC00C
:100010001AC019C0C0C094C1A3C115C014C013C078
:1000200012C011C010C011241FBECFE5D4E0DEBF46
:10003000CDBF10E0A0E6B0E001C01D92A336B1072D
:10004000E1F7C7D07BC7DCCFDF93CF9300D00F920F
:10005000CDB7DEB78FEF8983E0E3F0E08081882FB2
:1000600090E080719070009711F589818B838B816E
:10007000882311F081E08B838B8199819150998342
:10008000882399F7E0E3F0E08081882F90E0807189
:100090009070009761F4E0E3F0E08081882F90E0B9
:1000A000807190700097B9F381E08A8301C01A8251
:1000B0008A810F900F900F90CF91DF910895DF9379
:1000C000CF93CDB7DEB7C0DF8823E9F3CF91DF91BF
:1000D0000895DF93CF9300D0CDB7DEB789836A83CD
:1000E0008981982F96958981892789838981982F7D
:1000F000969596958981892789838981982F9295EC
:100100009F708981892789838A81982F96958A8112
:1001100089278A838A81982F969596958A8189273F
:100120008A838A81982F92959F708A8189278A83F2
:1001300099818A81892781700F900F90CF91DF91EB
:100140000895DF93CF9300D00F92CDB7DEB79A8397
:10015000898329813A8188E162E046E0F7D5E98127
:10016000FA818081882F90E081709070009759F417
:10017000A5E3B0E0E5E3F0E0908181E089278C938E
:1001800081E08B8301C01B828B810F900F900F90B9
:10019000CF91DF9108951F920F920FB60F92112405
:1001A0008F93EF93FF93DF93CF93CDB7DEB781E0CB
:1001B00080936000EFE2F0E0808180936100CF9156
:1001C000DF91FF91EF918F910F900FBE0F901F90D5
:1001D0001895DF93CF93CDB7DEB72C970FB6F89471
:1001E000DEBF0FBECDBF80E097E1A0E0B0E0898325
:1001F0009A83AB83BC83A5E5B0E0E5E5F0E08081C0
:100200008F788C93E4E3F0E087E08083E5E3F0E02F
:1002100084E08083E2E3F0E08CE1808360D081E0E1
:1002200080936200B2D081E080936000DDD4E5E588
:10023000F0E08AE08083789486E86ED085E06EE016
:100240000BD282E869D0A5E3B0E0E5E3F0E080817D
:100250008B7F8C9383E860D03DD68D8384E85CD01F
:10026000A5E3B0E0E5E3F0E0808184608C9385E86D
:1002700053D08D8151D080E84FD0A5E3B0E0E5E3C5
:10028000F0E080818B7F8C9325D68D83A5E3B0E051
:10029000E5E3F0E0808184608C938D813DD0A5E31F
:1002A000B0E0E5E3F0E080818B7F8C938FE9AFD500
:1002B0001E8207C0ECD58D838D812ED08E818F5FFD
:1002C0008E838E818031B0F3A5E3B0E0E5E3F0E00A
:1002D000808184608C9388E71FD0F1DECCCFDF93E0
:1002E000CF93CDB7DEB7E0E4F0E01082E9E2F0E0D2
:1002F00081E08083ABE2B0E0EBE2F0E080818D7FD3
:100300008C93EAE2F0E088EB8083E0E4F0E086EAB8
:100310008083CF91DF910895DF93CF930F92CDB774
:10032000DEB78983809162008823E1F3ECE2F0E09C
:1003300089818083109262000F90CF91DF910895A0
:100340001F920F920FB60F921124DF93CF93CDB768
:10035000DEB7CF91DF910F900FBE0F901F901895D1
:100360001F920F920FB60F9211248F93DF93CF93AA
:10037000CDB7DEB781E080936200CF91DF918F919E
:100380000F900FBE0F901F901895DF93CF93CDB7AE
:10039000DEB7E7E3F0E08CE28083EDE2F0E080EDB1
:1003A0008083CF91DF910895DF93CF93CDB7DEB7F0
:1003B000E7E3F0E080E18083EDE2F0E080E4808339
:1003C000CF91DF910895DF93CF93CDB7DEB7EEE203
:1003D000F0E080818823DCF7EFE2F0E08081CF91CC
:1003E000DF910895DF93CF930F92CDB7DEB7898366
:1003F00010926000EFE2F0E0898180830F90CF914E
:10040000DF910895DF93CF930F92CDB7DEB7898345
:100410008FE0E8DFEEE2F0E080818823DCF789817D
:10042000E1DFEEE2F0E080818823DCF70F90CF91EE
:10043000DF910895DF93CF930F92CDB7DEB7898315
:1004400088E16FE0498143D40F90CF91DF91089507
:10045000DF93CF930F92CDB7DEB7898380E1C2DF00
:10046000EEE2F0E080818823DCF78981BBDFEEE2F9
:10047000F0E080818823DCF70F90CF91DF91089521
:10048000DF93CF930F92CDB7DEB7898388E160E128
:1004900049811DD40F90CF91DF910895DF93CF93C1
:1004A000CDB7DEB78AE19EDFEEE2F0E080818823FF
:1004B000DCF781E097DFEEE2F0E080818823DCF773
:1004C000A5E3B0E0E5E3F0E0808180628C93A5E3F2
:1004D000B0E0E5E3F0E080818F7D8C9383E182DF03
:1004E000EEE2F0E080818823DCF780E87BDFEEE25B
:1004F000F0E080818823DCF7A5E3B0E0E5E3F0E0FD
:10050000808180628C93A5E3B0E0E5E3F0E0808138
:100510008F7D8C9380E266DFEEE2F0E080818823BD
:10052000DCF780E05FDFEEE2F0E080818823DCF73B
:10053000A5E3B0E0E5E3F0E0808180628C93A5E381
:10054000B0E0E5E3F0E080818F7D8C9387E14ADFC6
:10055000EEE2F0E080818823DCF780E143DFEEE229
:10056000F0E080818823DCF7A5E3B0E0E5E3F0E08C
:10057000808180628C93CF91DF910895DF93CF9338
:10058000CDB7DEB788E16AE141E0A1D388E163E15C
:1005900040E89DD388E160E240E099D388E167E1DB
:1005A00040E195D3CF91DF910895DF93CF9300D0B1
:1005B0000F92CDB7DEB78A836B838A818823A1F03F
:1005C000A5E3B0E0E5E3F0E080818F7D8C938A8144
:1005D00019DFA5E3B0E0E5E3F0E0808180628C9371
:1005E0008A811ED2882361F78B818823A1F0A5E33D
:1005F000B0E0E5E3F0E080818F7D8C938B8128DF94
:10060000A5E3B0E0E5E3F0E0808180628C938B812C
:10061000ABD1882361F7A5E3B0E0E5E3F0E08081AA
:100620008F7D8C933BDFA5E3B0E0E5E3F0E08081D4
:1006300080628C9396D08983A5E3B0E0E5E3F0E097
:10064000808180628C938981882329F70F900F9095
:100650000F90CF91DF910895DF93CF9300D00F9249
:10066000CDB7DEB78A836B838A81882331F08A8194
:10067000E1DE8A810FD28823D1F78B81882331F084
:100680008B81FEDE8B81AAD18823D1F777DF1FD142
:10069000898389818823D1F70F900F900F90CF9194
:1006A000DF910895DF93CF93CDB7DEB7A5E3B0E038
:1006B000E5E3F0E080818F7D8C9380E893DEEEE2CD
:1006C000F0E080818823DCF780E08CDEEEE2F0E071
:1006D00080818823DCF7A5E3B0E0E5E3F0E08081EA
:1006E00080628C93CF91DF910895DF93CF930F9227
:1006F000CDB7DEB788E160E005D3898389810F90AB
:10070000CF91DF910895DF93CF93CDB7DEB7A5E307
:10071000B0E0E5E3F0E080818F7D8C9384E162DEE0
:10072000EEE2F0E080818823DCF786EB5BDEEEE230
:10073000F0E080818823DCF7A5E3B0E0E5E3F0E0BA
:10074000808180628C93CF91DF910895DF93CF9366
:10075000CDB7DEB788E164E146EBB9D2CF91DF9146
:100760000895DF93CF9300D0CDB7DEB7A5E3B0E017
:10077000E5E3F0E080818F7D8C938AE933DEEEE261
:10078000F0E080818823DCF780E02CDEEEE2F0E010
:1007900080818823DCF7EFE2F0E080818983898122
:1007A000882F90E0817890708130910519F081E078
:1007B0008A8387C0A5E3B0E0E5E3F0E08081806252
:1007C0008C93A5E3B0E0E5E3F0E080818F7D8C932E
:1007D00083E908DEEEE2F0E080818823DCF780E048
:1007E00001DEEEE2F0E080818823DCF7EFE2F0E06A
:1007F000808189838981882F90E0807C9070803807
:10080000910529F08981982F93609A835AC0A5E3B6
:10081000B0E0E5E3F0E0808180628C93A5E3B0E096
:10082000E5E3F0E080818F7D8C9380EADBDDEEE212
:10083000F0E080818823DCF780E0D4DDEEE2F0E0B8
:1008400080818823DCF7EFE2F0E080818983898171
:10085000882F90E08F709070009729F08981982FF1
:10086000906F9A832EC0A5E3B0E0E5E3F0E08081CD
:1008700080628C93A5E3B0E0E5E3F0E080818F7DBA
:100880008C9387E9AFDDEEE2F0E080818823DCF72E
:1008900080E0A8DDEEE2F0E080818823DCF7EFE283
:1008A000F0E0808189838981882F90E08F7190703A
:1008B0008031910529F08981982F906C9A8301C02D
:1008C0001A828A810F900F90CF91DF910895DF9364
:1008D000CF9300D0CDB7DEB788E16AE113D2898328
:1008E0008981882F90E0817890708130910519F08E
:1008F00081E08A8333C088E163E104D289838981FE
:10090000882F90E0807C90708038910529F0898153
:10091000982F93609A8322C088E160E2F3D18983A3
:100920008981882F90E08F709070009729F08981DD
:10093000982F906F9A8312C088E167E1E3D1898391
:100940008981882F90E08F7190708031910529F016
:100950008981982F906C9A8301C01A828A810F90A6
:100960000F90CF91DF910895DF93CF9300D0CDB753
:10097000DEB78983A5E3B0E0E5E3F0E080818F7D19
:100980008C9380E92FDDEEE2F0E080818823DCF7B4
:1009900080E028DDEEE2F0E080818823DCF7A5E34B
:1009A000B0E0E5E3F0E0808180628C93EFE2F0E07C
:1009B0008081882F90E09C012F7130708981882F71
:1009C00090E02817390719F081E08A8301C01A8264
:1009D0008A810F900F90CF91DF910895DF93CF938D
:1009E00000D00F92CDB7DEB78A8388E160E18AD16B
:1009F00089838981882F90E09C012F7130708A81D2
:100A0000882F90E02817390719F081E08B8301C007
:100A10001B828B810F900F900F90CF91DF910895E3
:100A2000DF93CF9300D0CDB7DEB78983A5E3B0E0E5
:100A3000E5E3F0E080818F7D8C938FE8D3DCEEE2FC
:100A4000F0E080818823DCF780E0CCDCEEE2F0E0AF
:100A500080818823DCF7A5E3B0E0E5E3F0E0808166
:100A600080628C93EFE2F0E08081882F90E09C011F
:100A70002F7030708981882F90E02817390719F07E
:100A800081E08A8301C01A828A810F900F90CF91F2
:100A9000DF910895DF93CF9300D00F92CDB7DEB7EB
:100AA0008A8388E16FE02ED189838981882F90E045
:100AB0009C012F7030708A81882F90E028173907A9
:100AC00019F081E08B8301C01B828B810F900F9006
:100AD0000F90CF91DF910895DF93CF93CDB7DEB71D
:100AE000A5E3B0E0E5E3F0E080818F7E8C938BECB2
:100AF00079DCEEE2F0E080818823DCF780E072DCD4
:100B0000EEE2F0E080818823DCF7A5E3B0E0E5E3E6
:100B1000F0E0808180618C93CF91DF910895DF9325
:100B2000CF93CDB7DEB7A5E3B0E0E5E3F0E0808199
:100B30008F7E8C938BE456DCEEE2F0E0808188239C
:100B4000DCF781E04FDCEEE2F0E080818823DCF727
:100B5000A5E3B0E0E5E3F0E0808180618C930000E4
:100B600000000000A5E3B0E0E5E3F0E080818F7EC7
:100B70008C938BEC37DCEEE2F0E080818823DCF7AD
:100B800080E030DCEEE2F0E080818823DCF7A5E352
:100B9000B0E0E5E3F0E0808180618C93CF91DF915C
:100BA0000895DF93CF93CDB7DEB7A5E3B0E0E5E3DB
:100BB000F0E080818F7E8C9380EC14DCEEE2F0E03C
:100BC00080818823DCF780E00DDCEEE2F0E08081BC
:100BD0008823DCF7A5E3B0E0E5E3F0E08081806105
:100BE0008C93CF91DF910895DF93CF93CDB7DEB78C
:100BF000E0E2F0E08AE08083E1E2F0E01082E6E506
:100C0000F0E084E08083CF91DF910895DF93CF936C
:100C1000CDB7DEB7E6E5F0E084EA8083E6E5F0E014
:100C200080818823DCF7CF91DF910895DF93CF9304
:100C3000CDB7DEB7E6E5F0E084E98083E6E5F0E0F5
:100C40008081882F90E0807190700097B9F7CF91E4
:100C5000DF910895DF93CF930F92CDB7DEB78983ED
:100C6000E3E2F0E089818083E6E5F0E084E88083D8
:100C7000E6E5F0E080818823DCF70F90CF91DF91EB
:100C80000895DF93CF9300D000D0CDB7DEB789832E
:100C900086E590E09C838B838981882319F094EC0E
:100CA0009A8302C0E4E8EA838A81EB81FC81808335
:100CB000E6E5F0E080818823DCF7E3E2F0E0808184
:100CC0000F900F900F900F90CF91DF910895DF93C9
:100CD000CF9300D00F92CDB7DEB789836A834B8361
:100CE00095DF8981882F90E0880F991FB3DF8A8173
:100CF000B1DF8B81AFDF9ADF0F900F900F90CF9114
:100D0000DF910895DF93CF9300D00F92CDB7DEB778
:100D10008A836B837BDF8A81882F90E0880F991FFD
:100D200099DF8B8197DF72DF8A81882F90E0880FAF
:100D3000991F81608FDF80E0A4DF898377DF89815D
:100D40000F900F900F90CF91DF9108950F931F9305
:100D5000DF93CF9300D000D000D0CDB7DEB78A8329
:100D60006B834C833E832D8351DF8A81882F90E0F3
:100D7000880F991F6FDF8B816DDF58DF47DF8A8116
:100D8000882F90E0880F991F816064DF19820FC05F
:100D90008981282F30E08D819E818C01020F131FE5
:100DA00081E06FDFF801808389818F5F898389818A
:100DB000282F30E08C81882F90E001972817390781
:100DC0003CF38981282F30E08D819E818C01020FB8
:100DD000131F80E056DFF801808326960FB6F89443
:100DE000DEBF0FBECDBFCF91DF911F910F91089550
:100DF000DF93CF930F92CDB7DEB7E1E2F0E08081D1
:100E0000887F898389810F90CF91DF910895DF9347
:100E1000CF930F92CDB7DEB789838091600088238E
:100E2000E1F38981DFDA0F90CF91DF910895DF93AD
:100E3000CF9300D000D0CDB7DEB769837A838B83A0
:100E40009C83809160008823E1F389819A81AB8142
:100E5000BC81CD01AA27BB27C5DA80916000882319
:100E6000E1F389819A81AB81BC81892F9A2FAB2FC5
:100E7000BB27B8DA809160008823E1F38981B2DA78
:100E80000F900F900F900F90CF91DF910895DF9307
:100E9000CF93CDB7DEB7809160008823E1F380E087
:100EA000A1DA809160008823E1F380916100CF9105
:100EB000DF910895DF93CF930F92CDB7DEB789838B
:100EC000809160008823E1F389818CDA0F90CF91C3
:100ED000DF910895DF93CF93CDB7DEB785E097DF3D
:100EE000D6DFCF91DF910895DF93CF930F92CDB7E7
:100EF000DEB787EC8CDFA5E3B0E0E5E3F0E08081CE
:100F000084608C930000A5E3B0E0E5E3F0E080812D
:100F10008B7F8C93DFDF8983A5E3B0E0E5E3F0E02E
:100F2000808184608C938981882F90E0817090709B
:100F3000882349F70F90CF91DF910895F894FFCF60
:00000001FF
